{
  "_format": "hh-sol-artifact-1",
  "contractName": "PrivateToken",
  "sourceName": "contracts/PrivateToken.sol",
  "abi": [
    {
      "inputs": [
        {
          "internalType": "string",
          "name": "name_",
          "type": "string"
        },
        {
          "internalType": "string",
          "name": "symbol_",
          "type": "string"
        }
      ],
      "stateMutability": "nonpayable",
      "type": "constructor"
    },
    {
      "inputs": [
        {
          "internalType": "address",
          "name": "approver",
          "type": "address"
        }
      ],
      "name": "ERC20InvalidApprover",
      "type": "error"
    },
    {
      "inputs": [
        {
          "internalType": "address",
          "name": "receiver",
          "type": "address"
        }
      ],
      "name": "ERC20InvalidReceiver",
      "type": "error"
    },
    {
      "inputs": [
        {
          "internalType": "address",
          "name": "sender",
          "type": "address"
        }
      ],
      "name": "ERC20InvalidSender",
      "type": "error"
    },
    {
      "inputs": [
        {
          "internalType": "address",
          "name": "spender",
          "type": "address"
        }
      ],
      "name": "ERC20InvalidSpender",
      "type": "error"
    },
    {
      "anonymous": false,
      "inputs": [
        {
          "indexed": true,
          "internalType": "address",
          "name": "owner",
          "type": "address"
        },
        {
          "indexed": true,
          "internalType": "address",
          "name": "spender",
          "type": "address"
        },
        {
          "indexed": false,
          "internalType": "ctUint64",
          "name": "ownerValue",
          "type": "uint256"
        },
        {
          "indexed": false,
          "internalType": "ctUint64",
          "name": "spenderValue",
          "type": "uint256"
        }
      ],
      "name": "Approval",
      "type": "event"
    },
    {
      "anonymous": false,
      "inputs": [
        {
          "indexed": true,
          "internalType": "address",
          "name": "from",
          "type": "address"
        },
        {
          "indexed": true,
          "internalType": "address",
          "name": "to",
          "type": "address"
        },
        {
          "indexed": false,
          "internalType": "ctUint64",
          "name": "senderValue",
          "type": "uint256"
        },
        {
          "indexed": false,
          "internalType": "ctUint64",
          "name": "receiverValue",
          "type": "uint256"
        }
      ],
      "name": "Transfer",
      "type": "event"
    },
    {
      "inputs": [
        {
          "internalType": "address",
          "name": "account",
          "type": "address"
        }
      ],
      "name": "accountEncryptionAddress",
      "outputs": [
        {
          "internalType": "address",
          "name": "",
          "type": "address"
        }
      ],
      "stateMutability": "view",
      "type": "function"
    },
    {
      "inputs": [
        {
          "internalType": "address",
          "name": "account",
          "type": "address"
        },
        {
          "internalType": "bool",
          "name": "isSpender",
          "type": "bool"
        }
      ],
      "name": "allowance",
      "outputs": [
        {
          "internalType": "gtUint64",
          "name": "",
          "type": "uint256"
        }
      ],
      "stateMutability": "nonpayable",
      "type": "function"
    },
    {
      "inputs": [
        {
          "internalType": "address",
          "name": "owner",
          "type": "address"
        },
        {
          "internalType": "address",
          "name": "spender",
          "type": "address"
        }
      ],
      "name": "allowance",
      "outputs": [
        {
          "components": [
            {
              "internalType": "ctUint64",
              "name": "ciphertext",
              "type": "uint256"
            },
            {
              "internalType": "ctUint64",
              "name": "ownerCiphertext",
              "type": "uint256"
            },
            {
              "internalType": "ctUint64",
              "name": "spenderCiphertext",
              "type": "uint256"
            }
          ],
          "internalType": "struct IPrivateERC20.Allowance",
          "name": "",
          "type": "tuple"
        }
      ],
      "stateMutability": "view",
      "type": "function"
    },
    {
      "inputs": [
        {
          "internalType": "address",
          "name": "spender",
          "type": "address"
        },
        {
          "internalType": "gtUint64",
          "name": "value",
          "type": "uint256"
        }
      ],
      "name": "approve",
      "outputs": [
        {
          "internalType": "bool",
          "name": "",
          "type": "bool"
        }
      ],
      "stateMutability": "nonpayable",
      "type": "function"
    },
    {
      "inputs": [
        {
          "internalType": "address",
          "name": "spender",
          "type": "address"
        },
        {
          "components": [
            {
              "internalType": "ctUint64",
              "name": "ciphertext",
              "type": "uint256"
            },
            {
              "internalType": "bytes",
              "name": "signature",
              "type": "bytes"
            }
          ],
          "internalType": "struct itUint64",
          "name": "value",
          "type": "tuple"
        }
      ],
      "name": "approve",
      "outputs": [
        {
          "internalType": "bool",
          "name": "",
          "type": "bool"
        }
      ],
      "stateMutability": "nonpayable",
      "type": "function"
    },
    {
      "inputs": [
        {
          "internalType": "address",
          "name": "account",
          "type": "address"
        }
      ],
      "name": "balanceOf",
      "outputs": [
        {
          "internalType": "ctUint64",
          "name": "",
          "type": "uint256"
        }
      ],
      "stateMutability": "view",
      "type": "function"
    },
    {
      "inputs": [],
      "name": "balanceOf",
      "outputs": [
        {
          "internalType": "gtUint64",
          "name": "",
          "type": "uint256"
        }
      ],
      "stateMutability": "nonpayable",
      "type": "function"
    },
    {
      "inputs": [
        {
          "internalType": "address",
          "name": "account",
          "type": "address"
        },
        {
          "internalType": "uint64",
          "name": "amount",
          "type": "uint64"
        }
      ],
      "name": "burn",
      "outputs": [],
      "stateMutability": "nonpayable",
      "type": "function"
    },
    {
      "inputs": [],
      "name": "decimals",
      "outputs": [
        {
          "internalType": "uint8",
          "name": "",
          "type": "uint8"
        }
      ],
      "stateMutability": "view",
      "type": "function"
    },
    {
      "inputs": [
        {
          "internalType": "address",
          "name": "account",
          "type": "address"
        },
        {
          "internalType": "uint64",
          "name": "amount",
          "type": "uint64"
        }
      ],
      "name": "mint",
      "outputs": [],
      "stateMutability": "nonpayable",
      "type": "function"
    },
    {
      "inputs": [],
      "name": "name",
      "outputs": [
        {
          "internalType": "string",
          "name": "",
          "type": "string"
        }
      ],
      "stateMutability": "view",
      "type": "function"
    },
    {
      "inputs": [
        {
          "internalType": "address",
          "name": "account",
          "type": "address"
        },
        {
          "internalType": "bool",
          "name": "isSpender",
          "type": "bool"
        }
      ],
      "name": "reencryptAllowance",
      "outputs": [
        {
          "internalType": "bool",
          "name": "",
          "type": "bool"
        }
      ],
      "stateMutability": "nonpayable",
      "type": "function"
    },
    {
      "inputs": [
        {
          "internalType": "address",
          "name": "offBoardAddress",
          "type": "address"
        }
      ],
      "name": "setAccountEncryptionAddress",
      "outputs": [
        {
          "internalType": "bool",
          "name": "",
          "type": "bool"
        }
      ],
      "stateMutability": "nonpayable",
      "type": "function"
    },
    {
      "inputs": [],
      "name": "symbol",
      "outputs": [
        {
          "internalType": "string",
          "name": "",
          "type": "string"
        }
      ],
      "stateMutability": "view",
      "type": "function"
    },
    {
      "inputs": [],
      "name": "totalSupply",
      "outputs": [
        {
          "internalType": "uint256",
          "name": "",
          "type": "uint256"
        }
      ],
      "stateMutability": "view",
      "type": "function"
    },
    {
      "inputs": [
        {
          "internalType": "address",
          "name": "to",
          "type": "address"
        },
        {
          "components": [
            {
              "internalType": "ctUint64",
              "name": "ciphertext",
              "type": "uint256"
            },
            {
              "internalType": "bytes",
              "name": "signature",
              "type": "bytes"
            }
          ],
          "internalType": "struct itUint64",
          "name": "value",
          "type": "tuple"
        }
      ],
      "name": "transfer",
      "outputs": [
        {
          "internalType": "gtBool",
          "name": "",
          "type": "uint256"
        }
      ],
      "stateMutability": "nonpayable",
      "type": "function"
    },
    {
      "inputs": [
        {
          "internalType": "address",
          "name": "to",
          "type": "address"
        },
        {
          "internalType": "gtUint64",
          "name": "value",
          "type": "uint256"
        }
      ],
      "name": "transfer",
      "outputs": [
        {
          "internalType": "gtBool",
          "name": "",
          "type": "uint256"
        }
      ],
      "stateMutability": "nonpayable",
      "type": "function"
    },
    {
      "inputs": [
        {
          "internalType": "address",
          "name": "from",
          "type": "address"
        },
        {
          "internalType": "address",
          "name": "to",
          "type": "address"
        },
        {
          "components": [
            {
              "internalType": "ctUint64",
              "name": "ciphertext",
              "type": "uint256"
            },
            {
              "internalType": "bytes",
              "name": "signature",
              "type": "bytes"
            }
          ],
          "internalType": "struct itUint64",
          "name": "value",
          "type": "tuple"
        }
      ],
      "name": "transferFrom",
      "outputs": [
        {
          "internalType": "gtBool",
          "name": "",
          "type": "uint256"
        }
      ],
      "stateMutability": "nonpayable",
      "type": "function"
    },
    {
      "inputs": [
        {
          "internalType": "address",
          "name": "from",
          "type": "address"
        },
        {
          "internalType": "address",
          "name": "to",
          "type": "address"
        },
        {
          "internalType": "gtUint64",
          "name": "value",
          "type": "uint256"
        }
      ],
      "name": "transferFrom",
      "outputs": [
        {
          "internalType": "gtBool",
          "name": "",
          "type": "uint256"
        }
      ],
      "stateMutability": "nonpayable",
      "type": "function"
    }
  ],
  "bytecode": "0x60806040523480156200001157600080fd5b50604051620019df380380620019df833981016040819052620000349162000123565b818160046200004483826200021c565b5060056200005382826200021c565b5050505050620002e8565b634e487b7160e01b600052604160045260246000fd5b600082601f8301126200008657600080fd5b81516001600160401b0380821115620000a357620000a36200005e565b604051601f8301601f19908116603f01168101908282118183101715620000ce57620000ce6200005e565b81604052838152602092508683858801011115620000eb57600080fd5b600091505b838210156200010f5785820183015181830184015290820190620000f0565b600093810190920192909252949350505050565b600080604083850312156200013757600080fd5b82516001600160401b03808211156200014f57600080fd5b6200015d8683870162000074565b935060208501519150808211156200017457600080fd5b50620001838582860162000074565b9150509250929050565b600181811c90821680620001a257607f821691505b602082108103620001c357634e487b7160e01b600052602260045260246000fd5b50919050565b601f8211156200021757600081815260208120601f850160051c81016020861015620001f25750805b601f850160051c820191505b818110156200021357828155600101620001fe565b5050505b505050565b81516001600160401b038111156200023857620002386200005e565b62000250816200024984546200018d565b84620001c9565b602080601f8311600181146200028857600084156200026f5750858301515b600019600386901b1c1916600185901b17855562000213565b600085815260208120601f198616915b82811015620002b95788860151825594840194600190910190840162000298565b5085821015620002d85787850151600019600388901b60f8161c191681555b5050505050600190811b01905550565b6116e780620002f86000396000f3fe608060405234801561001057600080fd5b50600436106101515760003560e01c8063313ce567116100cd57806396b2db3811610081578063a7d9ad6a11610066578063a7d9ad6a146102d2578063a9059cbb146102e5578063dd62ed3e146102f857600080fd5b806396b2db38146102ac578063a42c0af9146102bf57600080fd5b8063722713f7116100b2578063722713f7146102895780638269bcc31461029157806395d89b41146102a457600080fd5b8063313ce5671461024d57806370a082311461025c57600080fd5b806313691c761161012457806323b872dd1161010957806323b872dd1461021457806326a9b3f1146102275780632893c5b01461023a57600080fd5b806313691c76146101f857806318160ddd1461020d57600080fd5b8063043d20851461015657806306fdde031461019f57806308a2032a146101b4578063095ea7b3146101d5575b600080fd5b610182610164366004611284565b6001600160a01b039081166000908152602081905260409020541690565b6040516001600160a01b0390911681526020015b60405180910390f35b6101a761032d565b60405161019691906112e5565b6101c76101c2366004611310565b6103bf565b604051908152602001610196565b6101e86101e336600461136e565b6103f6565b6040519015158152602001610196565b61020b610206366004611398565b610410565b005b60006101c7565b6101c76102223660046113dc565b610427565b6101e8610235366004611418565b610449565b61020b610248366004611398565b6104e3565b60405160028152602001610196565b6101c761026a366004611284565b6001600160a01b03166000908152600160208190526040909120015490565b6101c76104f5565b6101e861029f366004611284565b610505565b6101a761057c565b6101c76102ba366004611418565b61058b565b6101e86102cd366004611449565b6105f4565b6101c76102e0366004611449565b61061c565b6101c76102f336600461136e565b610639565b61030b610306366004611497565b61064f565b6040805182518152602080840151908201529181015190820152606001610196565b60606004805461033c906114ca565b80601f0160208091040260200160405190810160405280929190818152602001828054610368906114ca565b80156103b55780601f1061038a576101008083540402835291602001916103b5565b820191906000526020600020905b81548152906001019060200180831161039857829003601f168201915b5050505050905090565b600033816103d46103cf8561156e565b6106c1565b90506103e1868383610751565b6103ec868683610824565b9695505050505050565b6000336104048185856108bc565b60019150505b92915050565b6104228261041d83610a66565b610aba565b505050565b600033610435858285610751565b610440858585610824565b95945050505050565b60008061045533610b12565b905082156104a0573360009081526002602090815260408083206001600160a01b0388168452909152902080546104959061048f90610b3b565b83610b58565b600190910155610404565b6001600160a01b0384166000908152600260209081526040808320338452909152902080546104d29061048f90610b3b565b600290910155600191505092915050565b610422826104f083610a66565b610c21565b600061050033610c72565b905090565b60008061051133610c72565b33600090815260208190526040902080547fffffffffffffffffffffffff0000000000000000000000000000000000000000166001600160a01b038616179055905061055d8184610b58565b3360009081526001602081905260409091208101919091559392505050565b60606005805461033c906114ca565b600081156105c7573360009081526002602090815260408083206001600160a01b03871684529091529020546105c090610b3b565b905061040a565b6001600160a01b03831660009081526002602090815260408083203384529091529020546105c090610b3b565b600033816106046103cf8561156e565b90506106118286836108bc565b506001949350505050565b6000338161062c6103cf8561156e565b9050610440828683610824565b600033610647818585610824565b949350505050565b61067360405180606001604052806000815260200160008152602001600081525090565b506001600160a01b0391821660009081526002602081815260408084209490951683529283529083902083516060810185528154815260018201549381019390935201549181019190915290565b805160208201516040517fe4f36e1000000000000000000000000000000000000000000000000000000000815260009260649263e4f36e109261070e92600160fa1b929091600401611629565b6020604051808303816000875af115801561072d573d6000803e3d6000fd5b505050506040513d601f19601f8201168201806040525081019061040a919061166a565b6001600160a01b03831660009081526001602052604081205461077390610b3b565b6001600160a01b038086166000908152600260209081526040808320938816835292905290812054919250906107a890610b3b565b905060006107c6826107c167ffffffffffffffff610a66565b610c94565b905060006107d48486610d14565b905060006107e28487610d14565b9050600061080c6107fc856107f78686610d29565b610d29565b610806878a610d3d565b87610d52565b90506108198989836108bc565b505050505050505050565b60006001600160a01b03841661086e576040517f96c6fd1e000000000000000000000000000000000000000000000000000000008152600060048201526024015b60405180910390fd5b6001600160a01b0383166108b1576040517fec442f0500000000000000000000000000000000000000000000000000000000815260006004820152602401610865565b610647848484610e17565b6001600160a01b0383166108ff576040517fe602df0500000000000000000000000000000000000000000000000000000000815260006004820152602401610865565b6001600160a01b038216610942576040517f94280d6200000000000000000000000000000000000000000000000000000000815260006004820152602401610865565b600061094d82610f75565b9050600061095a85610b12565b905060006109688483610b58565b905061097385610b12565b915060006109818584610b58565b905060405180606001604052808581526020018381526020018281525060026000896001600160a01b03166001600160a01b031681526020019081526020016000206000886001600160a01b03166001600160a01b03168152602001908152602001600020600082015181600001556020820151816001015560408201518160020155905050856001600160a01b0316876001600160a01b03167fb3fd5071835887567a0671151121894ddccc2842f1d10bedad13e0d17cace9a78484604051610a55929190918252602082015260400190565b60405180910390a350505050505050565b6040517fd9b60b60000000000000000000000000000000000000000000000000000000008152600160fa1b600482015267ffffffffffffffff8216602482015260009060649063d9b60b609060440161070e565b60006001600160a01b038316610aff576040517f96c6fd1e00000000000000000000000000000000000000000000000000000000815260006004820152602401610865565b610b0b83600084610e17565b9392505050565b6001600160a01b038082166000908152602081905260408120549091168061040a575090919050565b600081600003610b4f5761040a6000610a66565b61040a82610fcf565b60408051606083901b7fffffffffffffffffffffffffffffffffffffffff0000000000000000000000001660208201528151601481830301815260348201928390527f3c6f0e6800000000000000000000000000000000000000000000000000000000909252600091606491633c6f0e6891610bde91600160fa1b918891603801611629565b6020604051808303816000875af1158015610bfd573d6000803e3d6000fd5b505050506040513d601f19601f82011682018060405250810190610b0b919061166a565b60006001600160a01b038316610c66576040517fec442f0500000000000000000000000000000000000000000000000000000000815260006004820152602401610865565b610b0b60008484610e17565b6001600160a01b038116600090815260016020526040812054610b0b81610b3b565b60006064637c12a1eb610ca960048085610fdf565b6040517fffffffff0000000000000000000000000000000000000000000000000000000060e084901b1681527fffffff000000000000000000000000000000000000000000000000000000000090911660048201526024810186905260448101859052606401610bde565b6000606463dd148693610ca960048085610fdf565b6000606463fb7da35f610ca9838080610fdf565b6000606463371d1bf2610ca960048085610fdf565b600060646320cc408d610d6760048085610fdf565b6040517fffffffff0000000000000000000000000000000000000000000000000000000060e084901b1681527fffffff000000000000000000000000000000000000000000000000000000000090911660048201526024810187905260448101869052606481018590526084016020604051808303816000875af1158015610df3573d6000803e3d6000fd5b505050506040513d601f19601f82011682018060405250810190610647919061166a565b6000808281610e26600161103c565b90506001600160a01b038716610e7d576000610e43600354610b3b565b9050610e4f818761109b565b9050610e5a81610f75565b6003556000610e6888610c72565b9050610e74818861109b565b94505050610ec5565b6000610e8888610c72565b90506000610e9588610c72565b90506000610ea483838a6110b0565b90975094509050610eb58a8261116e565b610ebf8683610d3d565b94505050505b6001600160a01b038616610f00576000610ee0600354610b3b565b9050610eec8184610d3d565b9050610ef781610f75565b60035550610f0a565b610f0a868461116e565b856001600160a01b0316876001600160a01b03167f9ed053bb818ff08b8353cd46f78db1f0799f31c9e4458fdb425c10eccd2efc44610f49858b610b58565b610f53868b610b58565b6040805192835260208301919091520160405180910390a39695505050505050565b6000606463c50c9c0260045b60f81b846040518363ffffffff1660e01b815260040161070e9291907fff00000000000000000000000000000000000000000000000000000000000000929092168252602082015260400190565b6000606463d2c135e56004610f81565b6000816002811115610ff357610ff3611613565b60ff16600884600481111561100a5761100a611613565b61ffff16901b61ffff16601086600481111561102857611028611613565b62ffffff16901b171760e81b949350505050565b6000808261104b57600061104e565b60015b6040517fd9b60b600000000000000000000000000000000000000000000000000000000081526000600482015260ff9190911660248201819052915060649063d9b60b6090604401610bde565b60006064638c5d0150610ca960048085610fdf565b6000808080808060646356c72d286110cb60048080866111b4565b6040517fffffffff0000000000000000000000000000000000000000000000000000000060e084901b81168252919091166004820152602481018c9052604481018b9052606481018a90526084016060604051808303816000875af1158015611138573d6000803e3d6000fd5b505050506040513d601f19601f8201168201806040525081019061115c9190611683565b919b909a509098509650505050505050565b600061117983610b12565b90506111858282611234565b6001600160a01b0390931660009081526001602081815260409092208551815594909101519301929092555050565b60008160028111156111c8576111c8611613565b60ff1660088460048111156111df576111df611613565b61ffff16901b61ffff1660108660048111156111fd576111fd611613565b62ffffff16901b62ffffff16601888600481111561121d5761121d611613565b63ffffffff16901b17171760e01b95945050505050565b604080518082019091526000808252602082015261125183610f75565b815261125d8383610b58565b602082015292915050565b80356001600160a01b038116811461127f57600080fd5b919050565b60006020828403121561129657600080fd5b610b0b82611268565b6000815180845260005b818110156112c5576020818501810151868301820152016112a9565b506000602082860101526020601f19601f83011685010191505092915050565b602081526000610b0b602083018461129f565b60006040828403121561130a57600080fd5b50919050565b60008060006060848603121561132557600080fd5b61132e84611268565b925061133c60208501611268565b9150604084013567ffffffffffffffff81111561135857600080fd5b611364868287016112f8565b9150509250925092565b6000806040838503121561138157600080fd5b61138a83611268565b946020939093013593505050565b600080604083850312156113ab57600080fd5b6113b483611268565b9150602083013567ffffffffffffffff811681146113d157600080fd5b809150509250929050565b6000806000606084860312156113f157600080fd5b6113fa84611268565b925061140860208501611268565b9150604084013590509250925092565b6000806040838503121561142b57600080fd5b61143483611268565b9150602083013580151581146113d157600080fd5b6000806040838503121561145c57600080fd5b61146583611268565b9150602083013567ffffffffffffffff81111561148157600080fd5b61148d858286016112f8565b9150509250929050565b600080604083850312156114aa57600080fd5b6114b383611268565b91506114c160208401611268565b90509250929050565b600181811c908216806114de57607f821691505b60208210810361130a57634e487b7160e01b600052602260045260246000fd5b634e487b7160e01b600052604160045260246000fd5b6040805190810167ffffffffffffffff81118282101715611537576115376114fe565b60405290565b604051601f8201601f1916810167ffffffffffffffff81118282101715611566576115666114fe565b604052919050565b60006040823603121561158057600080fd5b611588611514565b8235815260208084013567ffffffffffffffff808211156115a857600080fd5b9085019036601f8301126115bb57600080fd5b8135818111156115cd576115cd6114fe565b6115df84601f19601f8401160161153d565b915080825236848285010111156115f557600080fd5b80848401858401376000908201840152918301919091525092915050565b634e487b7160e01b600052602160045260246000fd5b7fff0000000000000000000000000000000000000000000000000000000000000084168152826020820152606060408201526000610440606083018461129f565b60006020828403121561167c57600080fd5b5051919050565b60008060006060848603121561169857600080fd5b835192506020840151915060408401519050925092509256fea2646970667358221220583140708dbd2e4cd3f0d7499aa1f5f674d56d661c878bc274e62c110151ea4d64736f6c63430008140033",
  "linkReferences": {},
  "deployedLinkReferences": {}
}