{
  "_format": "hh-sol-artifact-1",
  "contractName": "StringTestsContract",
  "sourceName": "contracts/precompiles/StringTestsContract.sol",
  "abi": [
    {
      "inputs": [],
      "name": "decryptNetworkEncryptedString",
      "outputs": [],
      "stateMutability": "nonpayable",
      "type": "function"
    },
    {
      "inputs": [],
      "name": "getUserEncryptedString",
      "outputs": [
        {
          "components": [
            {
              "internalType": "ctUint64[]",
              "name": "value",
              "type": "uint256[]"
            }
          ],
          "internalType": "struct ctString",
          "name": "",
          "type": "tuple"
        }
      ],
      "stateMutability": "view",
      "type": "function"
    },
    {
      "inputs": [],
      "name": "isEqual",
      "outputs": [
        {
          "internalType": "bool",
          "name": "",
          "type": "bool"
        }
      ],
      "stateMutability": "view",
      "type": "function"
    },
    {
      "inputs": [],
      "name": "plaintext",
      "outputs": [
        {
          "internalType": "string",
          "name": "",
          "type": "string"
        }
      ],
      "stateMutability": "view",
      "type": "function"
    },
    {
      "inputs": [
        {
          "components": [
            {
              "components": [
                {
                  "internalType": "ctUint64[]",
                  "name": "value",
                  "type": "uint256[]"
                }
              ],
              "internalType": "struct ctString",
              "name": "ciphertext",
              "type": "tuple"
            },
            {
              "internalType": "bytes[]",
              "name": "signature",
              "type": "bytes[]"
            }
          ],
          "internalType": "struct itString",
          "name": "a_",
          "type": "tuple"
        },
        {
          "components": [
            {
              "components": [
                {
                  "internalType": "ctUint64[]",
                  "name": "value",
                  "type": "uint256[]"
                }
              ],
              "internalType": "struct ctString",
              "name": "ciphertext",
              "type": "tuple"
            },
            {
              "internalType": "bytes[]",
              "name": "signature",
              "type": "bytes[]"
            }
          ],
          "internalType": "struct itString",
          "name": "b_",
          "type": "tuple"
        },
        {
          "internalType": "bool",
          "name": "useEq",
          "type": "bool"
        }
      ],
      "name": "setIsEqual",
      "outputs": [],
      "stateMutability": "nonpayable",
      "type": "function"
    },
    {
      "inputs": [
        {
          "components": [
            {
              "components": [
                {
                  "internalType": "ctUint64[]",
                  "name": "value",
                  "type": "uint256[]"
                }
              ],
              "internalType": "struct ctString",
              "name": "ciphertext",
              "type": "tuple"
            },
            {
              "internalType": "bytes[]",
              "name": "signature",
              "type": "bytes[]"
            }
          ],
          "internalType": "struct itString",
          "name": "it_",
          "type": "tuple"
        }
      ],
      "name": "setNetworkEncryptedString",
      "outputs": [],
      "stateMutability": "nonpayable",
      "type": "function"
    },
    {
      "inputs": [
        {
          "internalType": "string",
          "name": "str",
          "type": "string"
        }
      ],
      "name": "setPublicString",
      "outputs": [],
      "stateMutability": "nonpayable",
      "type": "function"
    },
    {
      "inputs": [],
      "name": "setRandomString",
      "outputs": [],
      "stateMutability": "nonpayable",
      "type": "function"
    },
    {
      "inputs": [
        {
          "components": [
            {
              "components": [
                {
                  "internalType": "ctUint64[]",
                  "name": "value",
                  "type": "uint256[]"
                }
              ],
              "internalType": "struct ctString",
              "name": "ciphertext",
              "type": "tuple"
            },
            {
              "internalType": "bytes[]",
              "name": "signature",
              "type": "bytes[]"
            }
          ],
          "internalType": "struct itString",
          "name": "it_",
          "type": "tuple"
        }
      ],
      "name": "setUserEncryptedString",
      "outputs": [],
      "stateMutability": "nonpayable",
      "type": "function"
    }
  ],
  "bytecode": "0x608060405234801561001057600080fd5b50611ab8806100206000396000f3fe608060405234801561001057600080fd5b50600436106100a25760003560e01c806378f7d7331161007657806395bf7bb11161005b57806395bf7bb114610112578063acbe845214610125578063f9ce33a91461014257600080fd5b806378f7d733146100f75780638a4ef8541461010a57600080fd5b8062bffdca146100a757806314f6161f146100b157806335435c00146100cf57806376ae56a5146100e2575b600080fd5b6100af610155565b005b6100b9610189565b6040516100c691906113bb565b60405180910390f35b6100af6100dd366004611423565b6101f7565b6100ea610232565b6040516100c691906114a6565b6100af610105366004611423565b6102c0565b6100af6102f0565b6100af6101203660046114b9565b610370565b6003546101329060ff1681565b60405190151581526020016100c6565b6100af61015036600461152b565b6103db565b60006101616014610469565b905061016d813361065e565b805180516000916101839183916020019061135b565b50505050565b604080516020810190915260608152604080516000805460208181028401850185528301818152929391928492909184918401828280156101e957602002820191906000526020600020905b8154815260200190600101908083116101d5575b505050505081525050905090565b600061020a61020583611748565b610732565b9050610215816108b6565b8051805160019161022b9183916020019061135b565b5050505050565b6002805461023f90611838565b80601f016020809104026020016040519081016040528092919081815260200182805461026b90611838565b80156102b85780601f1061028d576101008083540402835291602001916102b8565b820191906000526020600020905b81548152906001019060200180831161029b57829003601f168201915b505050505081565b60006102ce61020583611748565b90506102da813361065e565b8051805160009161022b9183916020019061135b565b60408051600180546020818102840185018552830181815260009461035494939284929184919084018282801561034657602002820191906000526020600020905b815481526020019060010190808311610332575b505050505081525050610986565b905061035f81610a4e565b60029061036c90826118b7565b5050565b60006103b183838080601f016020809104026020016040519081016040528093929190818152602001838380828437600092019190915250610b7892505050565b90506103bd813361065e565b805180516000916103d39183916020019061135b565b505050505050565b60006103e961020585611748565b905060006103f961020585611748565b9050600083156104145761040d8383610cfb565b9050610429565b6104266104218484610dbf565b610e7b565b90505b61043281610f17565b600380547fffffffffffffffffffffffffffffffffffffffffffffffffffffffffffffff0016911515919091179055505050505050565b6040805160208101909152606081526000600861048784600761198d565b61049191906119a0565b9050600060405180602001604052808367ffffffffffffffff8111156104b9576104b96115a8565b6040519080825280602002602001820160405280156104e2578160200160208202803683370190505b509052905060006104f36030610fa8565b905060006105016039610fa8565b9050600061050f6041610fa8565b9050600061051d605a610fa8565b9050600061052b6061610fa8565b90506000610539607a610fa8565b905060006105476000610fa8565b905060006105556000610fa8565b905060005b8a81101561064d5761056c6000610fa8565b925060005b600881101561061a575b6105856007610ffc565b92506105e46105df6105c86105ac61059d878f611049565b6105a7888f61110f565b611124565b6105c36105b9888e611049565b6105a7898e61110f565b611138565b6105c36105d5878b611049565b6105a7888b61110f565b610f17565b1561057b576105fc846105f76008610fa8565b61114c565b93506106088484611161565b9350610613816119c2565b9050610571565b50828a600001518281518110610632576106326119dc565b6020908102919091010152610646816119c2565b905061055a565b50979b9a5050505050505050505050565b6040805160208101909152606081528251516040805160208101909152600090808367ffffffffffffffff811115610698576106986115a8565b6040519080825280602002602001820160405280156106c1578160200160208202803683370190505b509052905060005b82811015610727576106f8866000015182815181106106ea576106ea6119dc565b602002602001015186611176565b825180518390811061070c5761070c6119dc565b6020908102919091010152610720816119c2565b90506106c9565b509150505b92915050565b6040805160208101909152606081526020820151518251515181146107b7576040517f08c379a000000000000000000000000000000000000000000000000000000000815260206004820152601c60248201527f4d50435f434f52453a20494e56414c49445f494e5055545f5445585400000000604482015260640160405180910390fd5b600060405180602001604052808367ffffffffffffffff8111156107dd576107dd6115a8565b604051908082528060200260200182016040528015610806578160200160208202803683370190505b50905260408051808201909152600081526060602082015290915060005b838110156108ac57855151805182908110610841576108416119dc565b6020908102919091018101518352860151805182908110610864576108646119dc565b6020026020010151826020018190525061087d826111fc565b8351805183908110610891576108916119dc565b60209081029190910101526108a5816119c2565b9050610824565b5090949350505050565b6040805160208101909152606081528151516040805160208101909152600090808367ffffffffffffffff8111156108f0576108f06115a8565b604051908082528060200260200182016040528015610919578160200160208202803683370190505b509052905060005b8281101561097e5761094f85600001518281518110610942576109426119dc565b6020026020010151611249565b8251805183908110610963576109636119dc565b6020908102919091010152610977816119c2565b9050610921565b509392505050565b6040805160208101909152606081528151516040805160208101909152600090808367ffffffffffffffff8111156109c0576109c06115a8565b6040519080825280602002602001820160405280156109e9578160200160208202803683370190505b509052905060005b8281101561097e57610a1f85600001518281518110610a1257610a126119dc565b6020026020010151611259565b8251805183908110610a3357610a336119dc565b6020908102919091010152610a47816119c2565b90506109f1565b8051516060906000610a618260086119f2565b67ffffffffffffffff811115610a7957610a796115a8565b6040519080825280601f01601f191660200182016040528015610aa3576020820181803683370190505b5090506000805b838110156108ac57610ad886600001518281518110610acb57610acb6119dc565b6020026020010151611269565b60c01b915060005b6008811015610b6757828160088110610afb57610afb6119dc565b1a60f81b8482610b0c8560086119f2565b610b16919061198d565b81518110610b2657610b266119dc565b60200101907effffffffffffffffffffffffffffffffffffffffffffffffffffffffffffff1916908160001a90535080610b5f816119c2565b915050610ae0565b50610b71816119c2565b9050610aaa565b6040805160208101909152606081528151829060006008610b9a83600761198d565b610ba491906119a0565b9050600060405180602001604052808367ffffffffffffffff811115610bcc57610bcc6115a8565b604051908082528060200260200182016040528015610bf5578160200160208202803683370190505b5090529050600080805b84811015610cee5760009250825b6008811015610cb2577fffffffffffffff00000000000000000000000000000000000000000000000000600894851b16938190610c4b9084906119f2565b610c55919061198d565b925086831015610ca2576038888481518110610c7357610c736119dc565b01602001517fff0000000000000000000000000000000000000000000000000000000000000016901c93909317925b610cab816119c2565b9050610c0d565b50610cbf8360c01c610fa8565b8451805183908110610cd357610cd36119dc565b6020908102919091010152610ce7816119c2565b9050610bff565b5091979650505050505050565b815151815151600091908114610d1d57610d156000611279565b91505061072c565b6000610d658560000151600081518110610d3957610d396119dc565b60200260200101518560000151600081518110610d5857610d586119dc565b60200260200101516112d8565b905060015b8281101561072757610dad826105a788600001518481518110610d8f57610d8f6119dc565b602002602001015188600001518581518110610d5857610d586119dc565b9150610db8816119c2565b9050610d6a565b815151815151600091908114610dd957610d156001611279565b6000610e218560000151600081518110610df557610df56119dc565b60200260200101518560000151600081518110610e1457610e146119dc565b60200260200101516112ed565b905060015b8281101561072757610e69826105c388600001518481518110610e4b57610e4b6119dc565b602002602001015188600001518581518110610e1457610e146119dc565b9150610e74816119c2565b9050610e26565b60006064631d79e49a825b60f81b846040518363ffffffff1660e01b8152600401610ed49291907fff00000000000000000000000000000000000000000000000000000000000000929092168252602082015260400190565b6020604051808303816000875af1158015610ef3573d6000803e3d6000fd5b505050506040513d601f19601f8201168201806040525081019061072c9190611a1f565b6040517f0cfed56100000000000000000000000000000000000000000000000000000000815260006004820181905260248201839052908190606490630cfed561906044016020604051808303816000875af1158015610f7b573d6000803e3d6000fd5b505050506040513d601f19601f82011682018060405250810190610f9f9190611a1f565b15159392505050565b6040517fd9b60b60000000000000000000000000000000000000000000000000000000008152600160fa1b600482015267ffffffffffffffff8216602482015260009060649063d9b60b6090604401610ed4565b6040517f072d17fc000000000000000000000000000000000000000000000000000000008152600160fa1b600482015260ff8216602482015260009060649063072d17fc90604401610ed4565b6000606463813b207461105e600480856112fe565b6040517fffffffff0000000000000000000000000000000000000000000000000000000060e084901b1681527fffffff0000000000000000000000000000000000000000000000000000000000909116600482015260248101869052604481018590526064015b6020604051808303816000875af11580156110e4573d6000803e3d6000fd5b505050506040513d601f19601f820116820180604052508101906111089190611a1f565b9392505050565b6000606463145fca2c61105e600480856112fe565b6000606463fe9c73d161105e8380806112fe565b6000606463fb7da35f61105e8380806112fe565b60006064631135f71a61105e600480856112fe565b6000606463fb7da35f61105e600480856112fe565b60408051606083901b7fffffffffffffffffffffffffffffffffffffffff0000000000000000000000001660208201528151601481830301815260348201928390527f3c6f0e6800000000000000000000000000000000000000000000000000000000909252600091606491633c6f0e68916110c591600160fa1b918891603801611a38565b805160208201516040517fe4f36e1000000000000000000000000000000000000000000000000000000000815260009260649263e4f36e1092610ed492600160fa1b929091600401611a38565b6000606463c50c9c026004610e86565b6000606463d2c135e56004610e86565b60006064630cfed5616004610e86565b6000808261128857600061128b565b60015b6040517fd9b60b600000000000000000000000000000000000000000000000000000000081526000600482015260ff9190911660248201819052915060649063d9b60b60906044016110c5565b60006064637c12a1eb61105e600480856112fe565b600060646342094c5661105e600480855b600081600281111561131257611312611a09565b60ff16600884600481111561132957611329611a09565b61ffff16901b61ffff16601086600481111561134757611347611a09565b62ffffff16901b171760e81b949350505050565b828054828255906000526020600020908101928215611396579160200282015b8281111561139657825182559160200191906001019061137b565b506113a29291506113a6565b5090565b5b808211156113a257600081556001016113a7565b6020808252825182820182905280516040840181905260009291820190839060608601905b8083101561140057835182529284019260019290920191908401906113e0565b509695505050505050565b60006040828403121561141d57600080fd5b50919050565b60006020828403121561143557600080fd5b813567ffffffffffffffff81111561144c57600080fd5b6114588482850161140b565b949350505050565b6000815180845260005b818110156114865760208185018101518683018201520161146a565b506000602082860101526020601f19601f83011685010191505092915050565b6020815260006111086020830184611460565b600080602083850312156114cc57600080fd5b823567ffffffffffffffff808211156114e457600080fd5b818501915085601f8301126114f857600080fd5b81358181111561150757600080fd5b86602082850101111561151957600080fd5b60209290920196919550909350505050565b60008060006060848603121561154057600080fd5b833567ffffffffffffffff8082111561155857600080fd5b6115648783880161140b565b9450602086013591508082111561157a57600080fd5b506115878682870161140b565b9250506040840135801515811461159d57600080fd5b809150509250925092565b634e487b7160e01b600052604160045260246000fd5b6040805190810167ffffffffffffffff811182821017156115e1576115e16115a8565b60405290565b6040516020810167ffffffffffffffff811182821017156115e1576115e16115a8565b604051601f8201601f1916810167ffffffffffffffff81118282101715611633576116336115a8565b604052919050565b600067ffffffffffffffff821115611655576116556115a8565b5060051b60200190565b6000601f838184011261167157600080fd5b823560206116866116818361163b565b61160a565b82815260059290921b850181019181810190878411156116a557600080fd5b8287015b8481101561173c57803567ffffffffffffffff808211156116ca5760008081fd5b818a0191508a603f8301126116df5760008081fd5b858201356040828211156116f5576116f56115a8565b61170688601f198c8501160161160a565b92508183528c8183860101111561171d5760008081fd5b81818501898501375060009082018701528452509183019183016116a9565b50979650505050505050565b60006040823603121561175a57600080fd5b6117626115be565b823567ffffffffffffffff8082111561177a57600080fd5b8185019150602080833603121561179057600080fd5b6117986115e7565b8335838111156117a757600080fd5b939093019236601f8501126117bb57600080fd5b83356117c96116818261163b565b81815260059190911b850183019083810190368311156117e857600080fd5b958401955b82871015611806578635825295840195908401906117ed565b8352505084528581013592508183111561181f57600080fd5b61182b3684880161165f565b9084015250909392505050565b600181811c9082168061184c57607f821691505b60208210810361141d57634e487b7160e01b600052602260045260246000fd5b601f8211156118b257600081815260208120601f850160051c810160208610156118935750805b601f850160051c820191505b818110156103d35782815560010161189f565b505050565b815167ffffffffffffffff8111156118d1576118d16115a8565b6118e5816118df8454611838565b8461186c565b602080601f83116001811461191a57600084156119025750858301515b600019600386901b1c1916600185901b1785556103d3565b600085815260208120601f198616915b828110156119495788860151825594840194600190910190840161192a565b50858210156119675787850151600019600388901b60f8161c191681555b5050505050600190811b01905550565b634e487b7160e01b600052601160045260246000fd5b8082018082111561072c5761072c611977565b6000826119bd57634e487b7160e01b600052601260045260246000fd5b500490565b600060001982036119d5576119d5611977565b5060010190565b634e487b7160e01b600052603260045260246000fd5b808202811582820484141761072c5761072c611977565b634e487b7160e01b600052602160045260246000fd5b600060208284031215611a3157600080fd5b5051919050565b7fff0000000000000000000000000000000000000000000000000000000000000084168152826020820152606060408201526000611a796060830184611460565b9594505050505056fea2646970667358221220d5f71b978a7e1d494ade51229f32f7b9f7e93cf5b08365974e1008ea1083cc0d64736f6c63430008140033",
  "linkReferences": {},
  "deployedLinkReferences": {}
}