{
  "_format": "hh-sol-artifact-1",
  "contractName": "Comparison1TestsContract",
  "sourceName": "contracts/precompiles/Comparison1Tests.Contract.sol",
  "abi": [
    {
      "inputs": [
        {
          "components": [
            {
              "internalType": "gtBool",
              "name": "res16_16",
              "type": "uint256"
            },
            {
              "internalType": "gtBool",
              "name": "res8_16",
              "type": "uint256"
            },
            {
              "internalType": "gtBool",
              "name": "res16_8",
              "type": "uint256"
            }
          ],
          "internalType": "struct Comparison1TestsContract.Check16",
          "name": "check16",
          "type": "tuple"
        }
      ],
      "name": "decryptAndCompareResults16",
      "outputs": [
        {
          "internalType": "bool",
          "name": "",
          "type": "bool"
        }
      ],
      "stateMutability": "nonpayable",
      "type": "function"
    },
    {
      "inputs": [
        {
          "components": [
            {
              "internalType": "gtBool",
              "name": "res32_32",
              "type": "uint256"
            },
            {
              "internalType": "gtBool",
              "name": "res8_32",
              "type": "uint256"
            },
            {
              "internalType": "gtBool",
              "name": "res32_8",
              "type": "uint256"
            },
            {
              "internalType": "gtBool",
              "name": "res16_32",
              "type": "uint256"
            },
            {
              "internalType": "gtBool",
              "name": "res32_16",
              "type": "uint256"
            }
          ],
          "internalType": "struct Comparison1TestsContract.Check32",
          "name": "check32",
          "type": "tuple"
        }
      ],
      "name": "decryptAndCompareResults32",
      "outputs": [
        {
          "internalType": "bool",
          "name": "",
          "type": "bool"
        }
      ],
      "stateMutability": "nonpayable",
      "type": "function"
    },
    {
      "inputs": [
        {
          "components": [
            {
              "internalType": "gtBool",
              "name": "res64_64",
              "type": "uint256"
            },
            {
              "internalType": "gtBool",
              "name": "res8_64",
              "type": "uint256"
            },
            {
              "internalType": "gtBool",
              "name": "res64_8",
              "type": "uint256"
            },
            {
              "internalType": "gtBool",
              "name": "res16_64",
              "type": "uint256"
            },
            {
              "internalType": "gtBool",
              "name": "res64_16",
              "type": "uint256"
            },
            {
              "internalType": "gtBool",
              "name": "res32_64",
              "type": "uint256"
            },
            {
              "internalType": "gtBool",
              "name": "res64_32",
              "type": "uint256"
            }
          ],
          "internalType": "struct Comparison1TestsContract.Check64",
          "name": "check64",
          "type": "tuple"
        }
      ],
      "name": "decryptAndCompareResults64",
      "outputs": [
        {
          "internalType": "bool",
          "name": "",
          "type": "bool"
        }
      ],
      "stateMutability": "nonpayable",
      "type": "function"
    },
    {
      "inputs": [],
      "name": "getResult",
      "outputs": [
        {
          "internalType": "bool",
          "name": "",
          "type": "bool"
        }
      ],
      "stateMutability": "view",
      "type": "function"
    },
    {
      "inputs": [
        {
          "internalType": "uint8",
          "name": "a",
          "type": "uint8"
        },
        {
          "internalType": "uint8",
          "name": "b",
          "type": "uint8"
        }
      ],
      "name": "gtTest",
      "outputs": [
        {
          "internalType": "bool",
          "name": "",
          "type": "bool"
        }
      ],
      "stateMutability": "nonpayable",
      "type": "function"
    },
    {
      "inputs": [
        {
          "internalType": "uint8",
          "name": "a",
          "type": "uint8"
        },
        {
          "internalType": "uint8",
          "name": "b",
          "type": "uint8"
        }
      ],
      "name": "leTest",
      "outputs": [
        {
          "internalType": "bool",
          "name": "",
          "type": "bool"
        }
      ],
      "stateMutability": "nonpayable",
      "type": "function"
    },
    {
      "inputs": [
        {
          "internalType": "uint8",
          "name": "a",
          "type": "uint8"
        },
        {
          "internalType": "uint8",
          "name": "b",
          "type": "uint8"
        }
      ],
      "name": "ltTest",
      "outputs": [
        {
          "internalType": "bool",
          "name": "",
          "type": "bool"
        }
      ],
      "stateMutability": "nonpayable",
      "type": "function"
    },
    {
      "inputs": [
        {
          "components": [
            {
              "internalType": "gtUint8",
              "name": "a8_s",
              "type": "uint256"
            },
            {
              "internalType": "gtUint8",
              "name": "b8_s",
              "type": "uint256"
            },
            {
              "internalType": "gtUint16",
              "name": "a16_s",
              "type": "uint256"
            },
            {
              "internalType": "gtUint16",
              "name": "b16_s",
              "type": "uint256"
            },
            {
              "internalType": "gtUint32",
              "name": "a32_s",
              "type": "uint256"
            },
            {
              "internalType": "gtUint32",
              "name": "b32_s",
              "type": "uint256"
            },
            {
              "internalType": "gtUint64",
              "name": "a64_s",
              "type": "uint256"
            },
            {
              "internalType": "gtUint64",
              "name": "b64_s",
              "type": "uint256"
            }
          ],
          "internalType": "struct Comparison1TestsContract.AllGTCastingValues",
          "name": "castingValues",
          "type": "tuple"
        },
        {
          "internalType": "uint8",
          "name": "a",
          "type": "uint8"
        },
        {
          "internalType": "uint8",
          "name": "b",
          "type": "uint8"
        }
      ],
      "name": "setPublicValues",
      "outputs": [],
      "stateMutability": "nonpayable",
      "type": "function"
    }
  ],
  "bytecode": "0x608060405234801561001057600080fd5b506124d4806100206000396000f3fe608060405234801561001057600080fd5b50600436106100885760003560e01c80638b6e7a8c1161005b5780638b6e7a8c146100ed578063acb3816914610100578063de29278914610113578063ebb571fd1461011e57600080fd5b806308c90f0d1461008d5780632e544aa0146100b457806379117549146100c757806380f937bc146100da575b600080fd5b6100a061009b3660046121e7565b610133565b604051901515815260200160405180910390f35b6100a06100c2366004612252565b6107a7565b6100a06100d53660046121e7565b610885565b6100a06100e83660046122bc565b610edb565b6100a06100fb3660046121e7565b610f80565b6100a061010e36600461234e565b6115c3565b60005460ff166100a0565b61013161012c3660046123cc565b611632565b005b600061017d60405180610100016040528060008152602001600081526020016000815260200160008152602001600081526020016000815260200160008152602001600081525090565b6101a160405180606001604052806000815260200160008152602001600081525090565b6101d36040518060a0016040528060008152602001600081526020016000815260200160008152602001600081525090565b6102136040518060e00160405280600081526020016000815260200160008152602001600081526020016000815260200160008152602001600081525090565b61021e848888611632565b610238610233856000015186602001516116b9565b61174f565b6000805460ff19169115159190911790556040840151606085015161025d91906117e0565b83528351606085015161027091906117f5565b83602001818152505061028b8460400151856020015161180b565b6040840152600061029b846107a7565b60005490915060ff161515811515146102fb5760405162461bcd60e51b815260206004820152601660248201527f6774546573743a2063617374203136206661696c65640000000000000000000060448201526064015b60405180910390fd5b61030d85608001518660a00151611821565b8352845160a08601516103209190611836565b83602001818152505061033b8560800151866020015161184c565b83604001818152505061035685604001518660a00151611862565b83606001818152505061037185608001518660600151611878565b60808401526000610381846115c3565b60005490915060ff161515811515146103dc5760405162461bcd60e51b815260206004820152601660248201527f6774546573743a2063617374203332206661696c65640000000000000000000060448201526064016102f2565b6103ee8660c001518760e0015161188e565b8352855160e087015161040191906118a3565b83602001818152505061041c8660c0015187602001516118b9565b83604001818152505061043786604001518760e001516118cf565b8360600181815250506104528660c0015187606001516118e5565b83608001818152505061046d86608001518760e001516118fb565b8360a00181815250506104888660c001518760a00151611911565b60c0840152600061049884610edb565b60005490915060ff161515811515146104f35760405162461bcd60e51b815260206004820152601660248201527f6774546573743a2063617374203634206661696c65640000000000000000000060448201526064016102f2565b6105046102338b8960200151611927565b60005460ff161515901515148015610535575061052861023388600001518b611979565b60005460ff161515901515145b6105a75760405162461bcd60e51b815260206004820152602660248201527f6774546573743a2074657374203820626974732077697468207363616c61722060448201527f6661696c6564000000000000000000000000000000000000000000000000000060648201526084016102f2565b6105bb6102338b60ff1689606001516119cc565b60005460ff1615159015151480156105ef57506105e261023388604001518b60ff16611a20565b60005460ff161515901515145b61064b5760405162461bcd60e51b815260206004820152602760248201527f6774546573743a207465737420313620626974732077697468207363616c61726044820152660819985a5b195960ca1b60648201526084016102f2565b61065f6102338b60ff168960a00151611a74565b60005460ff161515901515148015610693575061068661023388608001518b60ff16611aca565b60005460ff161515901515145b6106ef5760405162461bcd60e51b815260206004820152602760248201527f6774546573743a207465737420333220626974732077697468207363616c61726044820152660819985a5b195960ca1b60648201526084016102f2565b6107036102338b60ff168960e00151611b20565b60005460ff161515901515148015610737575061072a6102338860c001518b60ff16611b7a565b60005460ff161515901515145b6107935760405162461bcd60e51b815260206004820152602760248201527f6774546573743a207465737420363420626974732077697468207363616c61726044820152660819985a5b195960ca1b60648201526084016102f2565b505060005460ff1698975050505050505050565b6000806107b7836000015161174f565b90506107c6836020015161174f565b15158115151480156107e757506107e0836040015161174f565b1515811515145b61087f5760405162461bcd60e51b815260206004820152604660248201527f64656372797074416e64436f6d70617265416c6c526573756c74733a2046616960448201527f6c656420746f206465637279707420616e6420636f6d7061726520616c6c207260648201527f6573756c74730000000000000000000000000000000000000000000000000000608482015260a4016102f2565b92915050565b60006108cf60405180610100016040528060008152602001600081526020016000815260200160008152602001600081526020016000815260200160008152602001600081525090565b6108f360405180606001604052806000815260200160008152602001600081525090565b6109256040518060a0016040528060008152602001600081526020016000815260200160008152602001600081525090565b6109656040518060e00160405280600081526020016000815260200160008152602001600081526020016000815260200160008152602001600081525090565b610970848888611632565b61098561023385600001518660200151611bd4565b6000805460ff1916911515919091179055604084015160608501516109aa9190611be9565b8352835160608501516109bd9190611bfe565b8360200181815250506109d884604001518560200151611c14565b604084015260006109e8846107a7565b60005490915060ff16151581151514610a435760405162461bcd60e51b815260206004820152601660248201527f6c65546573743a2063617374203136206661696c65640000000000000000000060448201526064016102f2565b610a5585608001518660a00151611c2a565b8352845160a0860151610a689190611c3f565b836020018181525050610a8385608001518660200151611c55565b836040018181525050610a9e85604001518660a00151611c6b565b836060018181525050610ab985608001518660600151611c81565b60808401526000610ac9846115c3565b60005490915060ff16151581151514610b245760405162461bcd60e51b815260206004820152601660248201527f6c65546573743a2063617374203332206661696c65640000000000000000000060448201526064016102f2565b610b368660c001518760e00151611c97565b8352855160e0870151610b499190611cac565b836020018181525050610b648660c001518760200151611cc2565b836040018181525050610b7f86604001518760e00151611cd8565b836060018181525050610b9a8660c001518760600151611cee565b836080018181525050610bb586608001518760e00151611d04565b8360a0018181525050610bd08660c001518760a00151611d1a565b60c08401526000610be084610edb565b60005490915060ff16151581151514610c3b5760405162461bcd60e51b815260206004820152601660248201527f6c65546573743a2063617374203634206661696c65640000000000000000000060448201526064016102f2565b610c4c6102338b8960200151611d30565b60005460ff161515901515148015610c7d5750610c7061023388600001518b611d45565b60005460ff161515901515145b610cef5760405162461bcd60e51b815260206004820152602660248201527f6c65546573743a2074657374203820626974732077697468207363616c61722060448201527f6661696c6564000000000000000000000000000000000000000000000000000060648201526084016102f2565b610d036102338b60ff168960600151611d5b565b60005460ff161515901515148015610d375750610d2a61023388604001518b60ff16611d71565b60005460ff161515901515145b610d935760405162461bcd60e51b815260206004820152602760248201527f6c65546573743a207465737420313620626974732077697468207363616c61726044820152660819985a5b195960ca1b60648201526084016102f2565b610da76102338b60ff168960a00151611d87565b60005460ff161515901515148015610ddb5750610dce61023388608001518b60ff16611d9d565b60005460ff161515901515145b610e375760405162461bcd60e51b815260206004820152602760248201527f6c65546573743a207465737420333220626974732077697468207363616c61726044820152660819985a5b195960ca1b60648201526084016102f2565b610e4b6102338b60ff168960e00151611db3565b60005460ff161515901515148015610e7f5750610e726102338860c001518b60ff16611dc9565b60005460ff161515901515145b6107935760405162461bcd60e51b815260206004820152602760248201527f6c65546573743a207465737420363420626974732077697468207363616c61726044820152660819985a5b195960ca1b60648201526084016102f2565b600080610eeb836000015161174f565b9050610efa836020015161174f565b1515811515148015610f1b5750610f14836040015161174f565b1515811515145b8015610f365750610f2f836080015161174f565b1515811515145b8015610f515750610f4a836060015161174f565b1515811515145b8015610f6c5750610f658360c0015161174f565b1515811515145b80156107e757506107e08360a0015161174f565b6000610fca60405180610100016040528060008152602001600081526020016000815260200160008152602001600081526020016000815260200160008152602001600081525090565b610fee60405180606001604052806000815260200160008152602001600081525090565b6110206040518060a0016040528060008152602001600081526020016000815260200160008152602001600081525090565b6110606040518060e00160405280600081526020016000815260200160008152602001600081526020016000815260200160008152602001600081525090565b61106b848888611632565b61108061023385600001518660200151611ddf565b6000805460ff1916911515919091179055604084015160608501516110a59190611df4565b8352835160608501516110b89190611e09565b8360200181815250506110d384604001518560200151611e1f565b604084015260006110e3846107a7565b60005490915060ff1615158115151461113e5760405162461bcd60e51b815260206004820152601760248201527f6c6574546573743a2063617374203136206661696c656400000000000000000060448201526064016102f2565b61115085608001518660a00151611e35565b8352845160a08601516111639190611e4a565b83602001818152505061117e85608001518660200151611e60565b83604001818152505061119985604001518660a00151611e76565b8360600181815250506111b485608001518660600151611e8c565b608084015260006111c4846115c3565b60005490915060ff1615158115151461121f5760405162461bcd60e51b815260206004820152601760248201527f6c6574546573743a2063617374203332206661696c656400000000000000000060448201526064016102f2565b6112318660c001518760e00151611ea2565b8352855160e08701516112449190611eb7565b83602001818152505061125f8660c001518760200151611ecd565b83604001818152505061127a86604001518760e00151611ee3565b8360600181815250506112958660c001518760600151611ef9565b8360800181815250506112b086608001518760e00151611f0f565b8360a00181815250506112cb8660c001518760a00151611f25565b60c084015260006112db84610edb565b60005490915060ff161515811515146113365760405162461bcd60e51b815260206004820152601760248201527f6c6574546573743a2063617374203634206661696c656400000000000000000060448201526064016102f2565b6113476102338b8960200151611f3b565b60005460ff161515901515148015611378575061136b61023388600001518b611f50565b60005460ff161515901515145b6113d45760405162461bcd60e51b815260206004820152602760248201527f6c6574546573743a2074657374203820626974732077697468207363616c61726044820152660819985a5b195960ca1b60648201526084016102f2565b6113e86102338b60ff168960600151611f66565b60005460ff16151590151514801561141c575061140f61023388604001518b60ff16611f7c565b60005460ff161515901515145b6114795760405162461bcd60e51b815260206004820152602860248201527f6c6574546573743a207465737420313620626974732077697468207363616c616044820152671c8819985a5b195960c21b60648201526084016102f2565b61148d6102338b60ff168960a00151611f92565b60005460ff1615159015151480156114c157506114b461023388608001518b60ff16611fa8565b60005460ff161515901515145b61151e5760405162461bcd60e51b815260206004820152602860248201527f6c6574546573743a207465737420333220626974732077697468207363616c616044820152671c8819985a5b195960c21b60648201526084016102f2565b6115326102338b60ff168960e00151611fbe565b60005460ff16151590151514801561156657506115596102338860c001518b60ff16611fd4565b60005460ff161515901515145b6107935760405162461bcd60e51b815260206004820152602860248201527f6c6574546573743a207465737420363420626974732077697468207363616c616044820152671c8819985a5b195960c21b60648201526084016102f2565b6000806115d3836000015161174f565b90506115e2836020015161174f565b151581151514801561160357506115fc836040015161174f565b1515811515145b801561161e5750611617836080015161174f565b1515811515145b80156107e757506107e0836060015161174f565b61163b82611fea565b835261164681611fea565b602084015261165760ff8316612079565b604084015261166860ff8216612079565b606084015261167960ff83166120ca565b608084015261168a60ff82166120ca565b60a084015261169b60ff831661211d565b60c08401526116ac60ff821661211d565b60e0909301929092525050565b60006064636d82e45e6116ce60018085612174565b6040516001600160e01b031960e084901b1681526001600160e81b0319909116600482015260248101869052604481018590526064015b6020604051808303816000875af1158015611724573d6000803e3d6000fd5b505050506040513d601f19601f82011682018060405250810190611748919061246f565b9392505050565b6040517f0cfed56100000000000000000000000000000000000000000000000000000000815260006004820181905260248201839052908190606490630cfed561906044016020604051808303816000875af11580156117b3573d6000803e3d6000fd5b505050506040513d601f19601f820116820180604052508101906117d7919061246f565b15159392505050565b60006064636d82e45e6116ce60028085612174565b60006064636d82e45e6116ce6001600285612174565b60006064636d82e45e6116ce6002600185612174565b60006064636d82e45e6116ce60038085612174565b60006064636d82e45e6116ce6001600385612174565b60006064636d82e45e6116ce6003600185612174565b60006064636d82e45e6116ce6002600385612174565b60006064636d82e45e6116ce6003600285612174565b60006064636d82e45e6116ce60048085612174565b60006064636d82e45e6116ce6001600485612174565b60006064636d82e45e6116ce6004600185612174565b60006064636d82e45e6116ce6002600485612174565b60006064636d82e45e6116ce6004600285612174565b60006064636d82e45e6116ce6003600485612174565b60006064636d82e45e6116ce6004600385612174565b60006064636d82e45e61193c60018080612174565b6040516001600160e01b031960e084901b1681526001600160e81b0319909116600482015260ff8616602482015260448101859052606401611705565b60006064636d82e45e61198f6001806002612174565b6040516001600160e01b031960e084901b1681526001600160e81b031990911660048201526024810186905260ff85166044820152606401611705565b60006064636d82e45e6119e26002806001612174565b6040516001600160e01b031960e084901b1681526001600160e81b0319909116600482015261ffff8616602482015260448101859052606401611705565b60006064636d82e45e611a366001806002612174565b6040516001600160e01b031960e084901b1681526001600160e81b031990911660048201526024810186905261ffff85166044820152606401611705565b60006064636d82e45e611a8a6003806001612174565b6040516001600160e01b031960e084901b1681526001600160e81b0319909116600482015263ffffffff8616602482015260448101859052606401611705565b60006064636d82e45e611ae06003806002612174565b6040516001600160e01b031960e084901b1681526001600160e81b031990911660048201526024810186905263ffffffff85166044820152606401611705565b60006064636d82e45e611b366004806001612174565b6040516001600160e01b031960e084901b1681526001600160e81b0319909116600482015267ffffffffffffffff8616602482015260448101859052606401611705565b60006064636d82e45e611b906004806002612174565b6040516001600160e01b031960e084901b1681526001600160e81b031990911660048201526024810186905267ffffffffffffffff85166044820152606401611705565b6000606463145fca2c6116ce60018085612174565b6000606463145fca2c6116ce60028085612174565b6000606463145fca2c6116ce6001600285612174565b6000606463145fca2c6116ce6002600185612174565b6000606463145fca2c6116ce60038085612174565b6000606463145fca2c6116ce6001600385612174565b6000606463145fca2c6116ce6003600185612174565b6000606463145fca2c6116ce6002600385612174565b6000606463145fca2c6116ce6003600285612174565b6000606463145fca2c6116ce60048085612174565b6000606463145fca2c6116ce6001600485612174565b6000606463145fca2c6116ce6004600185612174565b6000606463145fca2c6116ce6002600485612174565b6000606463145fca2c6116ce6004600285612174565b6000606463145fca2c6116ce6003600485612174565b6000606463145fca2c6116ce6004600385612174565b6000606463145fca2c61193c60018080612174565b6000606463145fca2c61198f6001806002612174565b6000606463145fca2c6119e26002806001612174565b6000606463145fca2c611a366001806002612174565b6000606463145fca2c611a8a6003806001612174565b6000606463145fca2c611ae06003806002612174565b6000606463145fca2c611b366004806001612174565b6000606463145fca2c611b906004806002612174565b6000606463dd1486936116ce60018085612174565b6000606463dd1486936116ce60028085612174565b6000606463dd1486936116ce6001600285612174565b6000606463dd1486936116ce6002600185612174565b6000606463dd1486936116ce60038085612174565b6000606463dd1486936116ce6001600385612174565b6000606463dd1486936116ce6003600185612174565b6000606463dd1486936116ce6002600385612174565b6000606463dd1486936116ce6003600285612174565b6000606463dd1486936116ce60048085612174565b6000606463dd1486936116ce6001600485612174565b6000606463dd1486936116ce6004600185612174565b6000606463dd1486936116ce6002600485612174565b6000606463dd1486936116ce6004600285612174565b6000606463dd1486936116ce6003600485612174565b6000606463dd1486936116ce6004600385612174565b6000606463dd14869361193c60018080612174565b6000606463dd14869361198f6001806002612174565b6000606463dd1486936119e26002806001612174565b6000606463dd148693611a366001806002612174565b6000606463dd148693611a8a6003806001612174565b6000606463dd148693611ae06003806002612174565b6000606463dd148693611b366004806001612174565b6000606463dd148693611b906004806002612174565b6040516306cdb05b60e51b81527f0100000000000000000000000000000000000000000000000000000000000000600482015260ff8216602482015260009060649063d9b60b60906044015b6020604051808303816000875af1158015612055573d6000803e3d6000fd5b505050506040513d601f19601f8201168201806040525081019061087f919061246f565b6040516306cdb05b60e51b81527f0200000000000000000000000000000000000000000000000000000000000000600482015261ffff8216602482015260009060649063d9b60b6090604401612036565b6040516306cdb05b60e51b81527f0300000000000000000000000000000000000000000000000000000000000000600482015263ffffffff8216602482015260009060649063d9b60b6090604401612036565b6040516306cdb05b60e51b81527f0400000000000000000000000000000000000000000000000000000000000000600482015267ffffffffffffffff8216602482015260009060649063d9b60b6090604401612036565b600081600281111561218857612188612488565b60ff16600884600481111561219f5761219f612488565b61ffff16901b61ffff1660108660048111156121bd576121bd612488565b62ffffff16901b171760e81b949350505050565b803560ff811681146121e257600080fd5b919050565b600080604083850312156121fa57600080fd5b612203836121d1565b9150612211602084016121d1565b90509250929050565b604051610100810167ffffffffffffffff8111828210171561224c57634e487b7160e01b600052604160045260246000fd5b60405290565b60006060828403121561226457600080fd5b6040516060810181811067ffffffffffffffff8211171561229557634e487b7160e01b600052604160045260246000fd5b80604052508235815260208301356020820152604083013560408201528091505092915050565b600060e082840312156122ce57600080fd5b60405160e0810181811067ffffffffffffffff821117156122ff57634e487b7160e01b600052604160045260246000fd5b8060405250823581526020830135602082015260408301356040820152606083013560608201526080830135608082015260a083013560a082015260c083013560c08201528091505092915050565b600060a0828403121561236057600080fd5b60405160a0810181811067ffffffffffffffff8211171561239157634e487b7160e01b600052604160045260246000fd5b806040525082358152602083013560208201526040830135604082015260608301356060820152608083013560808201528091505092915050565b60008060008385036101408112156123e357600080fd5b610100808212156123f357600080fd5b6123fb61221a565b9150853582526020860135602083015260408601356040830152606086013560608301526080860135608083015260a086013560a083015260c086013560c083015260e086013560e08301528194506124558187016121d1565b9350505061246661012085016121d1565b90509250925092565b60006020828403121561248157600080fd5b5051919050565b634e487b7160e01b600052602160045260246000fdfea2646970667358221220fff7335055649efaf0e246c63e84f7e8342058d94a4fdd93e3e116130f9f363664736f6c63430008140033",
  "linkReferences": {},
  "deployedLinkReferences": {}
}