{
  "_format": "hh-sol-artifact-1",
  "contractName": "TransferTestsContract",
  "sourceName": "contracts/precompiles/TransferTestsContract.sol",
  "abi": [
    {
      "inputs": [
        {
          "components": [
            {
              "internalType": "gtUint8",
              "name": "a8_s",
              "type": "uint256"
            },
            {
              "internalType": "gtUint8",
              "name": "b8_s",
              "type": "uint256"
            },
            {
              "internalType": "gtUint16",
              "name": "a16_s",
              "type": "uint256"
            },
            {
              "internalType": "gtUint16",
              "name": "b16_s",
              "type": "uint256"
            },
            {
              "internalType": "gtUint32",
              "name": "a32_s",
              "type": "uint256"
            },
            {
              "internalType": "gtUint32",
              "name": "b32_s",
              "type": "uint256"
            },
            {
              "internalType": "gtUint64",
              "name": "a64_s",
              "type": "uint256"
            },
            {
              "internalType": "gtUint64",
              "name": "b64_s",
              "type": "uint256"
            }
          ],
          "internalType": "struct TransferTestsContract.AllGTCastingValues",
          "name": "allGTCastingValues",
          "type": "tuple"
        },
        {
          "components": [
            {
              "internalType": "gtUint8",
              "name": "amount8_s",
              "type": "uint256"
            },
            {
              "internalType": "gtUint16",
              "name": "amount16_s",
              "type": "uint256"
            },
            {
              "internalType": "gtUint32",
              "name": "amount32_s",
              "type": "uint256"
            },
            {
              "internalType": "gtUint64",
              "name": "amount64_s",
              "type": "uint256"
            },
            {
              "internalType": "uint8",
              "name": "amount",
              "type": "uint8"
            }
          ],
          "internalType": "struct TransferTestsContract.AllAmountValues",
          "name": "allAmountValues",
          "type": "tuple"
        },
        {
          "internalType": "uint8",
          "name": "new_a",
          "type": "uint8"
        },
        {
          "internalType": "uint8",
          "name": "new_b",
          "type": "uint8"
        },
        {
          "internalType": "bool",
          "name": "res",
          "type": "bool"
        }
      ],
      "name": "computeAndChekTransfer16",
      "outputs": [],
      "stateMutability": "nonpayable",
      "type": "function"
    },
    {
      "inputs": [
        {
          "components": [
            {
              "internalType": "gtUint8",
              "name": "a8_s",
              "type": "uint256"
            },
            {
              "internalType": "gtUint8",
              "name": "b8_s",
              "type": "uint256"
            },
            {
              "internalType": "gtUint16",
              "name": "a16_s",
              "type": "uint256"
            },
            {
              "internalType": "gtUint16",
              "name": "b16_s",
              "type": "uint256"
            },
            {
              "internalType": "gtUint32",
              "name": "a32_s",
              "type": "uint256"
            },
            {
              "internalType": "gtUint32",
              "name": "b32_s",
              "type": "uint256"
            },
            {
              "internalType": "gtUint64",
              "name": "a64_s",
              "type": "uint256"
            },
            {
              "internalType": "gtUint64",
              "name": "b64_s",
              "type": "uint256"
            }
          ],
          "internalType": "struct TransferTestsContract.AllGTCastingValues",
          "name": "allGTCastingValues",
          "type": "tuple"
        },
        {
          "components": [
            {
              "internalType": "gtUint8",
              "name": "amount8_s",
              "type": "uint256"
            },
            {
              "internalType": "gtUint16",
              "name": "amount16_s",
              "type": "uint256"
            },
            {
              "internalType": "gtUint32",
              "name": "amount32_s",
              "type": "uint256"
            },
            {
              "internalType": "gtUint64",
              "name": "amount64_s",
              "type": "uint256"
            },
            {
              "internalType": "uint8",
              "name": "amount",
              "type": "uint8"
            }
          ],
          "internalType": "struct TransferTestsContract.AllAmountValues",
          "name": "allAmountValues",
          "type": "tuple"
        },
        {
          "internalType": "uint8",
          "name": "new_a",
          "type": "uint8"
        },
        {
          "internalType": "uint8",
          "name": "new_b",
          "type": "uint8"
        },
        {
          "internalType": "bool",
          "name": "res",
          "type": "bool"
        }
      ],
      "name": "computeAndChekTransfer32",
      "outputs": [],
      "stateMutability": "nonpayable",
      "type": "function"
    },
    {
      "inputs": [
        {
          "components": [
            {
              "internalType": "gtUint8",
              "name": "a8_s",
              "type": "uint256"
            },
            {
              "internalType": "gtUint8",
              "name": "b8_s",
              "type": "uint256"
            },
            {
              "internalType": "gtUint16",
              "name": "a16_s",
              "type": "uint256"
            },
            {
              "internalType": "gtUint16",
              "name": "b16_s",
              "type": "uint256"
            },
            {
              "internalType": "gtUint32",
              "name": "a32_s",
              "type": "uint256"
            },
            {
              "internalType": "gtUint32",
              "name": "b32_s",
              "type": "uint256"
            },
            {
              "internalType": "gtUint64",
              "name": "a64_s",
              "type": "uint256"
            },
            {
              "internalType": "gtUint64",
              "name": "b64_s",
              "type": "uint256"
            }
          ],
          "internalType": "struct TransferTestsContract.AllGTCastingValues",
          "name": "allGTCastingValues",
          "type": "tuple"
        },
        {
          "components": [
            {
              "internalType": "gtUint8",
              "name": "amount8_s",
              "type": "uint256"
            },
            {
              "internalType": "gtUint16",
              "name": "amount16_s",
              "type": "uint256"
            },
            {
              "internalType": "gtUint32",
              "name": "amount32_s",
              "type": "uint256"
            },
            {
              "internalType": "gtUint64",
              "name": "amount64_s",
              "type": "uint256"
            },
            {
              "internalType": "uint8",
              "name": "amount",
              "type": "uint8"
            }
          ],
          "internalType": "struct TransferTestsContract.AllAmountValues",
          "name": "allAmountValues",
          "type": "tuple"
        },
        {
          "internalType": "uint8",
          "name": "new_a",
          "type": "uint8"
        },
        {
          "internalType": "uint8",
          "name": "new_b",
          "type": "uint8"
        },
        {
          "internalType": "bool",
          "name": "res",
          "type": "bool"
        }
      ],
      "name": "computeAndChekTransfer64",
      "outputs": [],
      "stateMutability": "nonpayable",
      "type": "function"
    },
    {
      "inputs": [],
      "name": "getResults",
      "outputs": [
        {
          "internalType": "uint8",
          "name": "",
          "type": "uint8"
        },
        {
          "internalType": "uint8",
          "name": "",
          "type": "uint8"
        },
        {
          "internalType": "bool",
          "name": "",
          "type": "bool"
        }
      ],
      "stateMutability": "view",
      "type": "function"
    },
    {
      "inputs": [
        {
          "internalType": "uint8",
          "name": "a",
          "type": "uint8"
        },
        {
          "internalType": "uint8",
          "name": "b",
          "type": "uint8"
        },
        {
          "internalType": "uint8",
          "name": "amount",
          "type": "uint8"
        }
      ],
      "name": "transferTest",
      "outputs": [
        {
          "internalType": "uint8",
          "name": "",
          "type": "uint8"
        },
        {
          "internalType": "uint8",
          "name": "",
          "type": "uint8"
        },
        {
          "internalType": "bool",
          "name": "",
          "type": "bool"
        }
      ],
      "stateMutability": "nonpayable",
      "type": "function"
    }
  ],
  "bytecode": "0x608060405234801561001057600080fd5b50613068806100206000396000f3fe608060405234801561001057600080fd5b50600436106100665760003560e01c8063701251311161005057806370125131146100c0578063a7bb5454146100d3578063b83071d7146100e657600080fd5b80629839f51461006b5780634717f97c14610080575b600080fd5b61007e610079366004612eaa565b6100f9565b005b60005460ff80821691610100810482169162010000909104165b6040805160ff948516815293909216602084015215159082015260600160405180910390f35b61009a6100ce366004612f72565b610a5a565b61007e6100e1366004612eaa565b610cfb565b61007e6100f4366004612eaa565b6120ba565b600080600061011588608001518960a001518960400151612475565b92509250925061012483612533565b63ffffffff168660ff1614801561014b575061013f82612533565b63ffffffff168560ff16145b8015610162575061015b816125d6565b1515841515145b6101a15760405162461bcd60e51b815260206004820152601c602482015260008051602061301383398151915260448201526064015b60405180910390fd5b6101b888600001518960a001518960400151612667565b919450925090506101c883612533565b63ffffffff168660ff161480156101ef57506101e382612533565b63ffffffff168560ff16145b801561020657506101ff816125d6565b1515841515145b6102405760405162461bcd60e51b815260206004820152601c60248201526000805160206130138339815191526044820152606401610198565b610257886080015189602001518960400151612683565b9194509250905061026783612533565b63ffffffff168660ff1614801561028e575061028282612533565b63ffffffff168560ff16145b80156102a5575061029e816125d6565b1515841515145b6102df5760405162461bcd60e51b815260206004820152601c60248201526000805160206130138339815191526044820152606401610198565b6102f688604001518960a00151896040015161269f565b9194509250905061030683612533565b63ffffffff168660ff1614801561032d575061032182612533565b63ffffffff168560ff16145b8015610344575061033d816125d6565b1515841515145b61037e5760405162461bcd60e51b815260206004820152601c60248201526000805160206130138339815191526044820152606401610198565b6103958860800151896060015189604001516126bb565b919450925090506103a583612533565b63ffffffff168660ff161480156103cc57506103c082612533565b63ffffffff168560ff16145b80156103e357506103dc816125d6565b1515841515145b61041d5760405162461bcd60e51b815260206004820152601c60248201526000805160206130138339815191526044820152606401610198565b61043488608001518960a0015189600001516126d7565b9194509250905061044483612533565b63ffffffff168660ff1614801561046b575061045f82612533565b63ffffffff168560ff16145b8015610482575061047b816125d6565b1515841515145b6104bc5760405162461bcd60e51b815260206004820152601c60248201526000805160206130138339815191526044820152606401610198565b875160a089015188516104d09291906126f3565b919450925090506104e083612533565b63ffffffff168660ff1614801561050757506104fb82612533565b63ffffffff168560ff16145b801561051e5750610517816125d6565b1515841515145b6105585760405162461bcd60e51b815260206004820152601c60248201526000805160206130138339815191526044820152606401610198565b61056f88608001518960200151896000015161270f565b9194509250905061057f83612533565b63ffffffff168660ff161480156105a6575061059a82612533565b63ffffffff168560ff16145b80156105bd57506105b6816125d6565b1515841515145b6105f75760405162461bcd60e51b815260206004820152601c60248201526000805160206130138339815191526044820152606401610198565b61060e88604001518960a00151896000015161272b565b9194509250905061061e83612533565b63ffffffff168660ff16148015610645575061063982612533565b63ffffffff168560ff16145b801561065c5750610655816125d6565b1515841515145b6106965760405162461bcd60e51b815260206004820152601c60248201526000805160206130138339815191526044820152606401610198565b6106ad886080015189606001518960000151612748565b919450925090506106bd83612533565b63ffffffff168660ff161480156106e457506106d882612533565b63ffffffff168560ff16145b80156106fb57506106f4816125d6565b1515841515145b6107355760405162461bcd60e51b815260206004820152601c60248201526000805160206130138339815191526044820152606401610198565b61074c88608001518960a001518960200151612765565b9194509250905061075c83612533565b63ffffffff168660ff16148015610783575061077782612533565b63ffffffff168560ff16145b801561079a5750610793816125d6565b1515841515145b6107d45760405162461bcd60e51b815260206004820152601c60248201526000805160206130138339815191526044820152606401610198565b6107eb88600001518960a001518960200151612781565b919450925090506107fb83612533565b63ffffffff168660ff16148015610822575061081682612533565b63ffffffff168560ff16145b80156108395750610832816125d6565b1515841515145b6108735760405162461bcd60e51b815260206004820152601c60248201526000805160206130138339815191526044820152606401610198565b61088a88608001518960200151896020015161279e565b9194509250905061089a83612533565b63ffffffff168660ff161480156108c157506108b582612533565b63ffffffff168560ff16145b80156108d857506108d1816125d6565b1515841515145b6109125760405162461bcd60e51b815260206004820152601c60248201526000805160206130138339815191526044820152606401610198565b61092988604001518960a0015189602001516127bb565b9194509250905061093983612533565b63ffffffff168660ff16148015610960575061095482612533565b63ffffffff168560ff16145b80156109775750610970816125d6565b1515841515145b6109b15760405162461bcd60e51b815260206004820152601c60248201526000805160206130138339815191526044820152606401610198565b6109c88860800151896060015189602001516127d7565b919450925090506109d883612533565b63ffffffff168660ff161480156109ff57506109f382612533565b63ffffffff168560ff16145b8015610a165750610a0f816125d6565b1515841515145b610a505760405162461bcd60e51b815260206004820152601c60248201526000805160206130138339815191526044820152606401610198565b5050505050505050565b6000806000610aa760405180610100016040528060008152602001600081526020016000815260200160008152602001600081526020016000815260200160008152602001600081525090565b610adc6040518060a0016040528060008152602001600081526020016000815260200160008152602001600060ff1681525090565b610ae5886127f3565b8252610af0876127f3565b6020830152610b0160ff8916612843565b6040830152610b1260ff8816612843565b6060830152610b2360ff8916612894565b6080830152610b3460ff8816612894565b60a0830152610b4560ff89166128e7565b60c0830152610b5660ff88166128e7565b60e0830152610b64866127f3565b8152610b7260ff8716612843565b6020820152610b8360ff8716612894565b6040820152610b9460ff87166128e7565b606082015260ff8616608082015281516020830151825160009283928392610bbd92919061293e565b925092509250610bcc83612959565b600080547fffffffffffffffffffffffffffffffffffffffffffffffffffffffffffffff001660ff92909216919091179055610c0782612959565b600060016101000a81548160ff021916908360ff160217905550610c2a816125d6565b60008054911515620100009081027fffffffffffffffffffffffffffffffffffffffffffffffffffffffffff00ffff8416811792839055610c87938993899360ff93841692841692909217926101008204811692909104166120ba565b600054610cad908690869060ff80821691610100810482169162010000909104166100f9565b600054610cd3908690869060ff8082169161010081048216916201000090910416610cfb565b505060005460ff8082169b610100830482169b50620100009092041698509650505050505050565b6000806000610d178860c001518960e001518960600151612969565b925092509250610d2683612984565b67ffffffffffffffff168660ff16148015610d555750610d4582612984565b67ffffffffffffffff168560ff16145b8015610d6c5750610d65816125d6565b1515841515145b610db85760405162461bcd60e51b815260206004820152601c60248201527f7472616e73666572546573743a2063617374203634206661696c6564000000006044820152606401610198565b610dcf88600001518960e001518960600151612994565b91945092509050610ddf83612984565b67ffffffffffffffff168660ff16148015610e0e5750610dfe82612984565b67ffffffffffffffff168560ff16145b8015610e255750610e1e816125d6565b1515841515145b610e715760405162461bcd60e51b815260206004820152601c60248201527f7472616e73666572546573743a2063617374203634206661696c6564000000006044820152606401610198565b610e888860c00151896020015189606001516129b0565b91945092509050610e9883612984565b67ffffffffffffffff168660ff16148015610ec75750610eb782612984565b67ffffffffffffffff168560ff16145b8015610ede5750610ed7816125d6565b1515841515145b610f2a5760405162461bcd60e51b815260206004820152601c60248201527f7472616e73666572546573743a2063617374203634206661696c6564000000006044820152606401610198565b610f4188604001518960e0015189606001516129cc565b91945092509050610f5183612984565b67ffffffffffffffff168660ff16148015610f805750610f7082612984565b67ffffffffffffffff168560ff16145b8015610f975750610f90816125d6565b1515841515145b610fe35760405162461bcd60e51b815260206004820152601c60248201527f7472616e73666572546573743a2063617374203634206661696c6564000000006044820152606401610198565b610ffa8860c00151896060015189606001516129e8565b9194509250905061100a83612984565b67ffffffffffffffff168660ff16148015611039575061102982612984565b67ffffffffffffffff168560ff16145b80156110505750611049816125d6565b1515841515145b61109c5760405162461bcd60e51b815260206004820152601c60248201527f7472616e73666572546573743a2063617374203634206661696c6564000000006044820152606401610198565b6110b388608001518960e001518960600151612a04565b919450925090506110c383612984565b67ffffffffffffffff168660ff161480156110f257506110e282612984565b67ffffffffffffffff168560ff16145b80156111095750611102816125d6565b1515841515145b6111555760405162461bcd60e51b815260206004820152601c60248201527f7472616e73666572546573743a2063617374203634206661696c6564000000006044820152606401610198565b61116c8860c001518960a001518960600151612a20565b9194509250905061117c83612984565b67ffffffffffffffff168660ff161480156111ab575061119b82612984565b67ffffffffffffffff168560ff16145b80156111c257506111bb816125d6565b1515841515145b61120e5760405162461bcd60e51b815260206004820152601c60248201527f7472616e73666572546573743a2063617374203634206661696c6564000000006044820152606401610198565b6112258860c001518960e001518960400151612a3c565b9194509250905061123583612984565b67ffffffffffffffff168660ff16148015611264575061125482612984565b67ffffffffffffffff168560ff16145b801561127b5750611274816125d6565b1515841515145b6112b55760405162461bcd60e51b815260206004820152601c60248201526000805160206130138339815191526044820152606401610198565b6112cc88600001518960e001518960400151612a58565b919450925090506112dc83612984565b67ffffffffffffffff168660ff1614801561130b57506112fb82612984565b67ffffffffffffffff168560ff16145b8015611322575061131b816125d6565b1515841515145b61135c5760405162461bcd60e51b815260206004820152601c60248201526000805160206130138339815191526044820152606401610198565b6113738860c0015189602001518960400151612a75565b9194509250905061138383612984565b67ffffffffffffffff168660ff161480156113b257506113a282612984565b67ffffffffffffffff168560ff16145b80156113c957506113c2816125d6565b1515841515145b6114035760405162461bcd60e51b815260206004820152601c60248201526000805160206130138339815191526044820152606401610198565b61141a88604001518960e001518960400151612a92565b9194509250905061142a83612984565b67ffffffffffffffff168660ff16148015611459575061144982612984565b67ffffffffffffffff168560ff16145b80156114705750611469816125d6565b1515841515145b6114aa5760405162461bcd60e51b815260206004820152601c60248201526000805160206130138339815191526044820152606401610198565b6114c18860c0015189606001518960400151612aaf565b919450925090506114d183612984565b67ffffffffffffffff168660ff1614801561150057506114f082612984565b67ffffffffffffffff168560ff16145b80156115175750611510816125d6565b1515841515145b6115515760405162461bcd60e51b815260206004820152601c60248201526000805160206130138339815191526044820152606401610198565b61156888608001518960e001518960400151612acc565b9194509250905061157883612984565b67ffffffffffffffff168660ff161480156115a7575061159782612984565b67ffffffffffffffff168560ff16145b80156115be57506115b7816125d6565b1515841515145b6115f85760405162461bcd60e51b815260206004820152601c60248201526000805160206130138339815191526044820152606401610198565b61160f8860c001518960a001518960400151612ae8565b9194509250905061161f83612984565b67ffffffffffffffff168660ff1614801561164e575061163e82612984565b67ffffffffffffffff168560ff16145b8015611665575061165e816125d6565b1515841515145b61169f5760405162461bcd60e51b815260206004820152601c60248201526000805160206130138339815191526044820152606401610198565b6116b68860c001518960e001518960000151612b04565b919450925090506116c683612984565b67ffffffffffffffff168660ff161480156116f557506116e582612984565b67ffffffffffffffff168560ff16145b801561170c5750611705816125d6565b1515841515145b6117585760405162461bcd60e51b815260206004820152601b60248201527f7472616e73666572546573743a20636173742038206661696c656400000000006044820152606401610198565b875160e0890151885161176c929190612b20565b9194509250905061177c83612984565b67ffffffffffffffff168660ff161480156117ab575061179b82612984565b67ffffffffffffffff168560ff16145b80156117c257506117bb816125d6565b1515841515145b61180e5760405162461bcd60e51b815260206004820152601b60248201527f7472616e73666572546573743a20636173742038206661696c656400000000006044820152606401610198565b6118258860c0015189602001518960000151612b3c565b9194509250905061183583612984565b67ffffffffffffffff168660ff16148015611864575061185482612984565b67ffffffffffffffff168560ff16145b801561187b5750611874816125d6565b1515841515145b6118c75760405162461bcd60e51b815260206004820152601b60248201527f7472616e73666572546573743a20636173742038206661696c656400000000006044820152606401610198565b6118de88604001518960e001518960000151612b58565b919450925090506118ee83612984565b67ffffffffffffffff168660ff1614801561191d575061190d82612984565b67ffffffffffffffff168560ff16145b8015611934575061192d816125d6565b1515841515145b6119805760405162461bcd60e51b815260206004820152601b60248201527f7472616e73666572546573743a20636173742038206661696c656400000000006044820152606401610198565b6119978860c0015189606001518960000151612b75565b919450925090506119a783612984565b67ffffffffffffffff168660ff161480156119d657506119c682612984565b67ffffffffffffffff168560ff16145b80156119ed57506119e6816125d6565b1515841515145b611a395760405162461bcd60e51b815260206004820152601b60248201527f7472616e73666572546573743a20636173742038206661696c656400000000006044820152606401610198565b611a5088608001518960e001518960000151612b92565b91945092509050611a6083612984565b67ffffffffffffffff168660ff16148015611a8f5750611a7f82612984565b67ffffffffffffffff168560ff16145b8015611aa65750611a9f816125d6565b1515841515145b611af25760405162461bcd60e51b815260206004820152601b60248201527f7472616e73666572546573743a20636173742038206661696c656400000000006044820152606401610198565b611b098860c001518960a001518960000151612baf565b91945092509050611b1983612984565b67ffffffffffffffff168660ff16148015611b485750611b3882612984565b67ffffffffffffffff168560ff16145b8015611b5f5750611b58816125d6565b1515841515145b611bab5760405162461bcd60e51b815260206004820152601b60248201527f7472616e73666572546573743a20636173742038206661696c656400000000006044820152606401610198565b611bc28860c001518960e001518960200151612bcc565b91945092509050611bd283612984565b67ffffffffffffffff168660ff16148015611c015750611bf182612984565b67ffffffffffffffff168560ff16145b8015611c185750611c11816125d6565b1515841515145b611c645760405162461bcd60e51b815260206004820152601c60248201527f7472616e73666572546573743a2063617374203136206661696c6564000000006044820152606401610198565b611c7b88600001518960e001518960200151612be8565b91945092509050611c8b83612984565b67ffffffffffffffff168660ff16148015611cba5750611caa82612984565b67ffffffffffffffff168560ff16145b8015611cd15750611cca816125d6565b1515841515145b611d1d5760405162461bcd60e51b815260206004820152601c60248201527f7472616e73666572546573743a2063617374203136206661696c6564000000006044820152606401610198565b611d348860c0015189602001518960200151612c05565b91945092509050611d4483612984565b67ffffffffffffffff168660ff16148015611d735750611d6382612984565b67ffffffffffffffff168560ff16145b8015611d8a5750611d83816125d6565b1515841515145b611dd65760405162461bcd60e51b815260206004820152601c60248201527f7472616e73666572546573743a2063617374203136206661696c6564000000006044820152606401610198565b611ded88604001518960e001518960200151612c22565b91945092509050611dfd83612984565b67ffffffffffffffff168660ff16148015611e2c5750611e1c82612984565b67ffffffffffffffff168560ff16145b8015611e435750611e3c816125d6565b1515841515145b611e8f5760405162461bcd60e51b815260206004820152601c60248201527f7472616e73666572546573743a2063617374203136206661696c6564000000006044820152606401610198565b611ea68860c0015189606001518960200151612c3e565b91945092509050611eb683612984565b67ffffffffffffffff168660ff16148015611ee55750611ed582612984565b67ffffffffffffffff168560ff16145b8015611efc5750611ef5816125d6565b1515841515145b611f485760405162461bcd60e51b815260206004820152601c60248201527f7472616e73666572546573743a2063617374203136206661696c6564000000006044820152606401610198565b611f5f88608001518960e001518960200151612c5a565b91945092509050611f6f83612984565b67ffffffffffffffff168660ff16148015611f9e5750611f8e82612984565b67ffffffffffffffff168560ff16145b8015611fb55750611fae816125d6565b1515841515145b6120015760405162461bcd60e51b815260206004820152601c60248201527f7472616e73666572546573743a2063617374203136206661696c6564000000006044820152606401610198565b6120188860c001518960a001518960200151612c77565b9194509250905061202883612984565b67ffffffffffffffff168660ff16148015612057575061204782612984565b67ffffffffffffffff168560ff16145b801561206e5750612067816125d6565b1515841515145b610a505760405162461bcd60e51b815260206004820152601c60248201527f7472616e73666572546573743a2063617374203136206661696c6564000000006044820152606401610198565b60008060006120d6886040015189606001518960000151612c94565b9250925092506120e583612cb0565b61ffff168660ff1614801561210857506120fe82612cb0565b61ffff168560ff16145b801561211f5750612118816125d6565b1515841515145b61216b5760405162461bcd60e51b815260206004820152601c60248201527f7472616e73666572546573743a2063617374203136206661696c6564000000006044820152606401610198565b87516060890151885161217f929190612cc0565b9194509250905061218f83612cb0565b61ffff168660ff161480156121b257506121a882612cb0565b61ffff168560ff16145b80156121c957506121c2816125d6565b1515841515145b6122155760405162461bcd60e51b815260206004820152601c60248201527f7472616e73666572546573743a2063617374203136206661696c6564000000006044820152606401610198565b61222c886040015189602001518960000151612cdc565b9194509250905061223c83612cb0565b61ffff168660ff1614801561225f575061225582612cb0565b61ffff168560ff16145b8015612276575061226f816125d6565b1515841515145b6122c25760405162461bcd60e51b815260206004820152601c60248201527f7472616e73666572546573743a2063617374203136206661696c6564000000006044820152606401610198565b6122d9886040015189606001518960200151612cf8565b919450925090506122e983612cb0565b61ffff168660ff1614801561230c575061230282612cb0565b61ffff168560ff16145b8015612323575061231c816125d6565b1515841515145b61236f5760405162461bcd60e51b815260206004820152601c60248201527f7472616e73666572546573743a2063617374203136206661696c6564000000006044820152606401610198565b612386886000015189606001518960200151612d13565b9194509250905061239683612cb0565b61ffff168660ff161480156123b957506123af82612cb0565b61ffff168560ff16145b80156123d057506123c9816125d6565b1515841515145b61241c5760405162461bcd60e51b815260206004820152601c60248201527f7472616e73666572546573743a2063617374203136206661696c6564000000006044820152606401610198565b612433886040015189602001518960200151612d2f565b9194509250905061244383612cb0565b61ffff168660ff16148015612057575061245c82612cb0565b61ffff168560ff1614801561206e5750612067816125d6565b6000808080808060646356c72d286124906003808086612d47565b6040517fffffffff0000000000000000000000000000000000000000000000000000000060e084901b81168252919091166004820152602481018c9052604481018b9052606481018a90526084016060604051808303816000875af11580156124fd573d6000803e3d6000fd5b505050506040513d601f19601f820116820180604052508101906125219190612fb5565b919b909a509098509650505050505050565b60006064630cfed56160035b60f81b846040518363ffffffff1660e01b815260040161258d9291907fff00000000000000000000000000000000000000000000000000000000000000929092168252602082015260400190565b6020604051808303816000875af11580156125ac573d6000803e3d6000fd5b505050506040513d601f19601f820116820180604052508101906125d09190612ff9565b92915050565b6040517f0cfed56100000000000000000000000000000000000000000000000000000000815260006004820181905260248201839052908190606490630cfed561906044016020604051808303816000875af115801561263a573d6000803e3d6000fd5b505050506040513d601f19601f8201168201806040525081019061265e9190612ff9565b15159392505050565b6000808080808060646356c72d28612490600160038086612d47565b6000808080808060646356c72d28612490600360018186612d47565b6000808080808060646356c72d28612490600260038086612d47565b6000808080808060646356c72d28612490600360028186612d47565b6000808080808060646356c72d28612490600380600186612d47565b6000808080808060646356c72d28612490600160038186612d47565b6000808080808060646356c72d28612490600360018086612d47565b6000808080808060646356c72d2861249060026003600186612d47565b6000808080808060646356c72d2861249060036002600186612d47565b6000808080808060646356c72d28612490600380600286612d47565b6000808080808060646356c72d2861249060016003600286612d47565b6000808080808060646356c72d2861249060036001600286612d47565b6000808080808060646356c72d28612490600260038186612d47565b6000808080808060646356c72d28612490600360028086612d47565b6040516306cdb05b60e51b81527f0100000000000000000000000000000000000000000000000000000000000000600482015260ff8216602482015260009060649063d9b60b609060440161258d565b6040516306cdb05b60e51b81527f0200000000000000000000000000000000000000000000000000000000000000600482015261ffff8216602482015260009060649063d9b60b609060440161258d565b6040516306cdb05b60e51b81527f0300000000000000000000000000000000000000000000000000000000000000600482015263ffffffff8216602482015260009060649063d9b60b609060440161258d565b6040516306cdb05b60e51b81527f0400000000000000000000000000000000000000000000000000000000000000600482015267ffffffffffffffff8216602482015260009060649063d9b60b609060440161258d565b6000808080808060646356c72d286124906001808086612d47565b60006064630cfed561600161253f565b6000808080808060646356c72d286124906004808086612d47565b60006064630cfed561600461253f565b6000808080808060646356c72d28612490600160048086612d47565b6000808080808060646356c72d28612490600460018186612d47565b6000808080808060646356c72d28612490600260048086612d47565b6000808080808060646356c72d28612490600460028186612d47565b6000808080808060646356c72d28612490600360048086612d47565b6000808080808060646356c72d28612490600460038186612d47565b6000808080808060646356c72d28612490600480600386612d47565b6000808080808060646356c72d2861249060016004600386612d47565b6000808080808060646356c72d2861249060046001600386612d47565b6000808080808060646356c72d2861249060026004600386612d47565b6000808080808060646356c72d2861249060046002600386612d47565b6000808080808060646356c72d28612490600360048186612d47565b6000808080808060646356c72d28612490600460038086612d47565b6000808080808060646356c72d28612490600480600186612d47565b6000808080808060646356c72d28612490600160048186612d47565b6000808080808060646356c72d28612490600460018086612d47565b6000808080808060646356c72d2861249060026004600186612d47565b6000808080808060646356c72d2861249060046002600186612d47565b6000808080808060646356c72d2861249060036004600186612d47565b6000808080808060646356c72d2861249060046003600186612d47565b6000808080808060646356c72d28612490600480600286612d47565b6000808080808060646356c72d2861249060016004600286612d47565b6000808080808060646356c72d2861249060046001600286612d47565b6000808080808060646356c72d28612490600260048186612d47565b6000808080808060646356c72d28612490600460028086612d47565b6000808080808060646356c72d2861249060036004600286612d47565b6000808080808060646356c72d2861249060046003600286612d47565b6000808080808060646356c72d28612490600280600186612d47565b60006064630cfed561600261253f565b6000808080808060646356c72d28612490600160028186612d47565b6000808080808060646356c72d28612490600260018086612d47565b6000808080808060646356c72d286124906002808086612d47565b6000808080808060646356c72d28612490600160028086612d47565b6000808080808060646356c72d286124906002600181865b6000816002811115612d5b57612d5b612fe3565b60ff166008846004811115612d7257612d72612fe3565b61ffff16901b61ffff166010866004811115612d9057612d90612fe3565b62ffffff16901b62ffffff166018886004811115612db057612db0612fe3565b63ffffffff16901b17171760e01b95945050505050565b604051610100810167ffffffffffffffff81118282101715612df957634e487b7160e01b600052604160045260246000fd5b60405290565b803560ff81168114612e1057600080fd5b919050565b600060a08284031215612e2757600080fd5b60405160a0810181811067ffffffffffffffff82111715612e5857634e487b7160e01b600052604160045260246000fd5b806040525080915082358152602083013560208201526040830135604082015260608301356060820152612e8e60808401612dff565b60808201525092915050565b80358015158114612e1057600080fd5b6000806000806000858703610200811215612ec457600080fd5b61010080821215612ed457600080fd5b612edc612dc7565b9150873582526020880135602083015260408801356040830152606088013560608301526080880135608083015260a088013560a083015260c088013560c083015260e088013560e0830152819650612f3789828a01612e15565b95505050612f486101a08701612dff565b9250612f576101c08701612dff565b9150612f666101e08701612e9a565b90509295509295909350565b600080600060608486031215612f8757600080fd5b612f9084612dff565b9250612f9e60208501612dff565b9150612fac60408501612dff565b90509250925092565b600080600060608486031215612fca57600080fd5b8351925060208401519150604084015190509250925092565b634e487b7160e01b600052602160045260246000fd5b60006020828403121561300b57600080fd5b505191905056fe7472616e73666572546573743a2063617374203332206661696c656400000000a264697066735822122049fc1136b8281f3774c3c032a66041fd91f6fc62b311d67e5b15b2471684f66d64736f6c63430008140033",
  "linkReferences": {},
  "deployedLinkReferences": {}
}